:020000040800F2
:10000000E00500209D010008D91D0008671C0008BC
:10001000491D0008490900081121000800000000DE
:10002000000000000000000000000000DD1D0008CE
:10003000B10A000800000000DB1D00082B1E0008AC
:10004000B7010008B7010008B7010008B7010008B0
:10005000B7010008B7010008B7010008B7010008A0
:10006000B7010008B7010008B7010008B701000890
:10007000B7010008B7010008B7010008B701000880
:10008000B7010008B7010008B7010008B701000870
:10009000B7010008B7010008B7010008B701000860
:1000A000B7010008B7010008B7010008B701000850
:1000B000B7010008B7010008B7010008B701000840
:1000C000B7010008B7010008B7010008B701000830
:1000D000B7010008B7010008B7010008B701000820
:1000E000B7010008B7010008B7010008B701000810
:1000F000B7010008B7010008B7010008B701000800
:10010000B7010008B7010008B7010008B7010008EF
:10011000B7010008B7010008B7010008B7010008DF
:10012000290A0008B7010008B7010008B701000854
:10013000B7010008B7010008B7010008B7010008BF
:10014000B7010008B7010008B7010008B7010008AF
:10015000B7010008B7010008B7010008B70100089F
:10016000B7010008B7010008B7010008B70100088F
:10017000B7010008B7010008B7010008000000003F
:10018000B7010008B7010008DFF80CD000F024FB2D
:1001900000480047B92A0008E005002006488047CB
:1001A00006480047FEE7FEE7FEE7FEE7FEE7FEE75C
:1001B000FEE7FEE7FEE7FEE7A11E00088901000852
:1001C0002DE9F05F0546002092469B46884606468C
:1001D000814640241BE0284641464746224600F01F
:1001E0007FF953465A46C01A914110D3114618461A
:1001F000224600F066F92D1A67EB01084F462246A9
:100200000120002100F05DF917EB00094E41201E8E
:10021000A4F10104DFDC484631462A464346BDE8E6
:10022000F09FD2B201E000F8012B491EFBD27047CB
:100230000022F6E710B513460A4604461946FFF7B2
:10024000F0FF204610BD421C10F8011B0029FBD115
:10025000801A70472DE9FE4F81EA030404F0004440
:1002600021F0004100944FF0000B23F0004350EACE
:1002700001045ED052EA03045BD0C3F30A54C1F315
:100280000A552C44A4F2F3340194A0FB0254C1F3A8
:10029000130141F48011C3F3130343F4801301FBF2
:1002A000024400FB034E840A970A44EA815447EA59
:1002B0008357A4FB076802958D0A05FB07854FEA63
:1002C000932C04FB0C542705029D4FEA065847EA7D
:1002D0001637B5EB08056EEB070C870E920E47EA52
:1002E000811742EA8312A7FB0201B6EB0B0164EB14
:1002F00000042B0D43EA0C335E1844EB1C50DA4625
:100300005146E7FB0201C5F313044FEA0B3343EAFE
:1003100014534FEA0432019C43EA0603A4F10C048F
:100320000294009CCDE900B400F030F903B0BDE8C0
:10033000F08F00200146F9E72DE9F04D81EA030432
:1003400004F0004B21F0004514464FF0000A23F062
:10035000004150EA050220D054EA01021DD0C5F345
:100360000A570246C5F31303C1F31300C1F30A563B
:1003700040F4801543F48013A7EB0608101BD64603
:1003800008F2FD3873EB050002D308F1010801E023
:1003900092185B41B8F1000F03DA00200146BDE876
:1003A000F08D00204FF48011064684460EE0171BA6
:1003B00073EB050705D3121B63EB050306434CEAF9
:1003C000010C49084FEA300092185B4150EA0107DE
:1003D000EDD152EA030012D082EA040083EA05015B
:1003E000084305D0101BAB4106D20122002306E0D2
:1003F00000224FF0004302E06FF0010253101AEBAD
:1004000006004CEB085110EB0A0041EB0B01BDE874
:10041000F04D00F0ACB80EB5C10F80EAE0700844B2
:10042000CA07002140F233438DE80E000A460B460E
:1004300000F0ACF803B000BD00F0004230F0004026
:100440000AD0C10D01F56071C0F3160042EA0151F6
:10045000C20840071143704700200146704701F071
:10046000004330B421F0004150EA010206D00A0DE9
:10047000A2F56072C1F31301002A02DC30BC002037
:100480007047440F44EAC104C100E01830BC00EBDF
:10049000C25000F035B830B50B460146002020228E
:1004A000012409E021FA02F59D4205D303FA02F581
:1004B000491B04FA02F52844151EA2F10102F1DCE1
:1004C00030BD202A04DB203A00FA02F100207047F8
:1004D0009140C2F1200320FA03F319439040704782
:1004E000202A04DB203A21FA02F00021704721FA89
:1004F00002F3D040C2F120029140084319467047F0
:100500000029A8BF7047401C490008BF20F0010027
:10051000704710B4B0FA80FC00FA0CF050EA010405
:1005200004BF10BC704749B1CCF1200421FA04F497
:1005300011FA0CF118BF012121430843A3EB0C0170
:10054000CB1D4FEA00614FEA102042BF002010BCD3
:10055000704700EBC35010440029A4BF10BC704783
:10056000401C490008BF20F0010010BC704710B5C6
:10057000141E73F1000408DA401C41F100019218C6
:100580005B411A4301D120F0010010BD2DE9F04D6F
:1005900092469B4611B1B1FA81F202E0B0FA80F2C4
:1005A00020329046FFF78DFF04460F4640EA0A00CE
:1005B00041EA0B0153465A46084313D0114653EA09
:1005C000010019D0C8F140025046FFF789FF0546E7
:1005D0000E46504659464246FFF773FF084305D082
:1005E000012004E020463946BDE8F08D0020054397
:1005F00046EAE0762C4337430A986305E40AA0EB09
:1006000008000022FD0A44EA47540A3002D50020BF
:100610000146E9E7010510196941DDE908450019BE
:100620006941BDE8F04DA2E72DE9FE4F804681EA21
:100630000300C00F0C46009021F0004123F000455C
:10064000B8EB0200A94105D24046214690461C461F
:100650000B46024623F00040104347D0270DC7F356
:100660000A00C3F30A510290401A019040286BDA45
:10067000C3F3130040F4801B0098924620B100237E
:10068000D2EB030A63EB0B0B01985946C0F1400211
:100690005046FFF716FF06460D4650465946019A4A
:1006A00000F0ACF810EB08006141002487EA115219
:1006B00084EAE7731A4340D0009A62B3019A012A90
:1006C0004FEA075215DC001B61EB02014FF00042BC
:1006D00002EA0752CDE90042001C41F58011324682
:1006E0002B46FFF753FF03B0BDE8F08F404621468D
:1006F000F9E7001B61EB0201001C41F580130018B3
:100700005B412018A2F5001747EB030140EAD570C2
:10071000B6196D4111E06D084FEA360645EAC0751D
:100720004FEA0752001B61EB0201001C41F58011EA
:1007300049084FEA30000019514132462B4603B0B8
:10074000BDE8F04FFFF713BF0098012240000023DF
:10075000D0EB020263EBE073009821464FEAE074AD
:10076000B8EB000061EB0401E9E783F000435BE7CD
:1007700081F0004158E7C1F30A52C1F3130140F27E
:10078000FF3341F480119A4202DA0020014670479B
:1007900040F233439A42A2F2334202DC5242FFF764
:1007A0009FBEFFF78EBE000030B5041E71F100043D
:1007B00004DB4FF00044404264EB0101141E73F16E
:1007C000000405DB1C464FF00043524263EB040378
:1007D000994208BF904230BD064C074D06E0E068E4
:1007E00040F0010394E8070098471034AC42F6D378
:1007F000FFF7CEFC142D0008342D0008202A06DB5C
:10080000CB17203A41FA02F043EAE07306E041FADE
:1008100002F3D040C2F120029140084319467047CC
:10082000464910B54A6822F440324A604A68436833
:100830001A434A6001684A6822F480724A6001687B
:100840004A68036942EA03224A6001684A6822F062
:1008500040724A6001684A6883681A434A600168C6
:100860008A6822F400628A6001688A68C3681A4351
:100870008A60816A6FF07062D14201688A6822F0F2
:1008800070628A6001688A680CD0836A1A438A6041
:1008900001688A6822F040528A6001688A68C36AE7
:1008A0001A4301E022F040528A6001688A6822F00F
:1008B00002028A6001688A68037E42EA43028A6013
:1008C00090F82010002901684A680FD042F40062B5
:1008D0004A6001684A6822F460424A6001684A68D6
:1008E000174C436A04EB43331A4301E022F40062DD
:1008F0004A600168CA6A22F47002CA620168CA6A60
:10090000838B104C04EB03531A43CA6201688A6854
:1009100022F400728A6001688A6890F8303042EAF6
:1009200043228A6001688A6822F480628A600168D2
:100930008A68406942EA8020886010BD0023014037
:1009400000E0FFFF0000F0FFFEE7000070B50024AC
:10095000282002F0A5F80C4D0221284600F0D6FC14
:1009600050B9502002F09CF80221284600F0CEFC3D
:1009700008B1012400E0FF240221284600F0C6FC53
:100980000028F9D1204670BD000002402DE9F04159
:100990000024144F01260221384600F0B7FC00283D
:1009A000F9D0282002F07CF80221384600F0AEFC95
:1009B00090B1C4F1070106FA01F02843C5B2022143
:1009C000384600F0A3FC0028F9D1641CE4B2082CDE
:1009D000E1D32846BDE8F081C4F1070006FA00F033
:1009E0008543ECE70000024010B50E4C0221204682
:1009F00001F008FA00220221204600F093FC4FF497
:100A0000966002F04DF801220221204600F08AFC97
:100A1000142002F045F82046BDE81040022101F004
:100A2000DEB9000000000240014800F047BA0000B3
:100A30007C01002001681823CAB2103AB2FBF3F21D
:100A4000054B6FF30901032A9B5CC36500D9091D9F
:100A50008165084670470000A82C000810B50146C3
:100A600000208B698A6A4FF0C07453B1B3F5005F00
:100A700015D072B1012A0CD0022A0AD0032A09D15A
:100A800004E01AB1012A06D0022A03D1C96AC901B9
:100A900000D5012010BDC96AA142FAD010BD002ABC
:100AA000F7D0012AF2D0022AF3D0032AF3D010BDE6
:100AB0007047704778B50024009490F83C20012AD4
:100AC00019D0012280F83C200A6807230568092A0A
:100AD00013D9EE680A3A02EB420293409E43EE605D
:100AE0000B788A680A3B03EB43039A400368DD688E
:100AF0002A43DA6010E0022078BD2E6902EB420240
:100B000093409E432E610B788A6803EB43039A401F
:100B100003681D692A431A614A681F23072A13D2F2
:100B200005686E6B521E02EB820293409E436E6319
:100B30000B790A885B1E92B203EB83039A40036829
:100B40005D6B2A435A6327E005680D2A12D22E6B8B
:100B5000D21F02EB820293409E432E630B790A88D8
:100B6000DB1F92B203EB83039A4003681D6B2A4399
:100B70001A6311E0EE6A0D3A02EB820293409E4343
:100B8000EE620B790A880D3B92B203EB83039A4025
:100B90000368DD6A2A43DA62164B0568144A9D42EF
:100BA00006D10D68122D03D1556845F480055560B6
:100BB00005689D4218D10B68102B01D0112B13D161
:100BC000536843F400035360096810290CD10A49A3
:100BD0000A4A0968B1FBF2F101EB8101490000E02A
:100BE000491E00910029FBD180F83C40002078BDCF
:100BF00000230140002001403800002040420F0047
:100C00000068C06C704770B504004FF0000503D059
:100C1000206C002610B107E0012070BD204600F0D6
:100C20001DF8666484F83C60206CC00610D4206C0B
:100C300020F4885040F0020020642046FFF7F0FDC9
:100C40006664206C20F0020040F00100206400E0A7
:100C5000012584F83C60284670BD000070B586B060
:100C6000064614216846FFF7E3FA1C4930688842BB
:100C700032D11B480025016841F480710160006891
:100C800000F48070059016481438016841F00101A5
:100C900001600068694600F00100059001200090A5
:100CA0000320CDE901050F4800F054FA0F4C0E481F
:100CB000C4E900050015A560C4E903508010656112
:100CC000C4E9065025622046656200F0C7F908B104
:100CD000FFF7EFFEB463A66306B070BD00200140CD
:100CE0004438024000000240106402407C010020B1
:100CF0002DE9F041044600680D4681684FF0000779
:100D000049050BD58068C00508D5206C40F020004F
:100D1000206484F83C700120BDE8F08100F008FBFD
:100D200006460FE0681C0DD025B100F001FB801BCA
:100D3000A84207D9206C40F00400206484F83C707D
:100D40000320E9E7206800688007EBD521686FF091
:100D500012000860206C40F40070206420688168F4
:100D600011F0405F13D1217E89B9C16A11F4700F6F
:100D700002D0806840050AD4206C20F48070206482
:100D8000206CC00403D4206C40F0010020640020DB
:100D9000C2E7000018B50021009190F83C20012A1C
:100DA00007D0012280F83C2002689368DB0702D05C
:100DB00011E0022018BD936843F0010393602A4AB2
:100DC0002A4B1268B2FBF3F202EB420200E0521E21
:100DD0000092002AFBD102689368DB0741D0036CC4
:100DE00040F20164A34343F48073036453685B05DA
:100DF00005D5036C23F4005343F480530364036C60
:100E0000DB0404D5436C23F00603436400E0416433
:100E100080F83C1016496FF022031360496800689F
:100E2000CA06144906D088421BD1816811F0405F80
:100E300013D016E08842F8D00F4A904203D1D1F87F
:100E40000423D206F1D00D4A90420AD1D1F80413FE
:100E500001F01F011029E8D303E0816841F08041CF
:100E60008160002018BD00003800002040420F00C3
:100E700000230140002001400021014000220140E8
:100E800090F83C1001290CD0012180F83C10016839
:100E90008A6822F001028A6001688968C90702D065
:100EA00007E002207047016C21F4885141F00101F4
:100EB0000164002180F83C10084670472DE9F84392
:100EC00004464FF00009CDF8009063484FF41651E6
:100ED000A56D0068B0FBF1F72E6894F85C1008204F
:100EE00000FA01F131420FD021680A6852070BD590
:100EF0000A6822F004020A6094F85C108840A86036
:100F0000606D40F00100606594F85C104FF00108DE
:100F100008FA01F0304208D021684969090604D571
:100F2000A860606D40F00200606594F85C100420D9
:100F30008840304208D021680968890704D5A86034
:100F4000606D40F00400606594F85C1010208840EB
:100F5000304218D021680968090714D5A8602068B4
:100F60000168490304D50068000308D5A16C07E0B7
:100F70000168C90503D4016821F008010160216CF2
:100F800009B12046884794F85C1020208840304200
:100F900031D021680968C9062DD5A86094F83500BC
:100FA00005282068016806D0490347D5006800037A
:100FB0001DD4616C1CE021F01601016020684169BC
:100FC00021F080014161206C08B9A06C20B120683B
:100FD000016821F00801016094F85C103F2088400E
:100FE000A86084F8349084F83580216D1FE0E16BAF
:100FF00009B120468847606D00282BD0606DC0077E
:1010000014D0052084F835002068016821F0010122
:1010100001600098401C0090B84203D82068006826
:10102000C007F6D184F8349084F83580E16C00294B
:1010300010D001B02046BDE8F04308470168C9055B
:10104000D5D4016821F01001016084F8349084F84F
:101050003580CCE7BDE8F883380000202DE9F04169
:10106000044600F065F906465CB1002584F834506A
:10107000022084F835002068016821F00101016038
:101080000DE00120BDE8F08100F052F9801B052839
:1010900005D920206065032084F83500F2E7206838
:1010A0000068C007F0D12268116820480140D4E9E7
:1010B00001031843D4E903363343184363691843E3
:1010C000A3691843E3691843236A18430843616A14
:1010D000042903D1D4E90B13194308431060206895
:1010E0004069666A20F0070130460E430127042854
:1010F0000CD1A06A0643E06A40B12046FFF7AEFC7F
:1011000020B14020606584F83570BAE720684661F8
:101110002046FFF78FFC94F85C203F2191408160CE
:10112000656584F835700020ACE700003F8010F062
:1011300070B5044600F0FCF80546601C02D0044877
:101140000078044400F0F4F8401BA042FAD370BDCC
:101150002C0000202DE9F84F00224FF00108032554
:101160004FF00F0E0B6808FA02F42340A3426ED131
:101170004E68012E05D0022E03D0112E01D0122E62
:1011800012D186684FEA420C05FA0CF7BE43CF68CD
:1011900007FA0CF7374387604668A6430C79C4F317
:1011A0000014944034434460C668570005FA07FCB5
:1011B0008C6826EA0C06BC403443C4604C68022CA0
:1011C00001D0122C13D1D40800EB8404A346D4F828
:1011D000209054074FEAD46A0EFA0AF629EA060963
:1011E0000E6906FA0AF646EA0906CBF82060066898
:1011F0000C7926EA0C0604F00304BC403443046076
:101200004C68E40065D5364C266846F48046266076
:10121000246822F0030604F480440094314C3444E2
:10122000A446D4F808489607370F0EFA07F6B443D9
:101230002D4EB04201D1002624E02C4EB04201D107
:1012400001261FE02A4EB04202D102261AE040E0F9
:10125000284EB04201D1032614E0274EB04201D1FE
:1012600004260FE0254EB04201D105260AE0244EA7
:10127000B04201D1062605E0224EB04201D1072638
:1012800000E00826BE402643CCF808681E4E3468AD
:101290004F689C43FF0300D51C4334601A4C241D47
:1012A00026684F689E43BF0300D51E432660164E36
:1012B000083634684F689C43FF0200D51C433460F5
:1012C000114E0C3634684F689C43BF0200D51C4356
:1012D0003460521C102AFFF445AFBDE8F88F0000BF
:1012E0004438024000300140000002400004024047
:1012F00000080240000C02400010024000140240AE
:1013000000180240001C0240003C014000690840F7
:1013100000D001207047426931EA020200D109047D
:10132000816170470AB1816170470904FBE70000E1
:1013300001488068704700002C0000200248816846
:1013400002781144816070472C0000200B4810B5D2
:10135000016841F400710160016841F4806101603D
:10136000016841F480710160032000F071F80020F1
:1013700000F006F800F024F8002010BD003C024008
:1013800070B50D4D04464FF47A712878B1FBF0F03A
:101390000A490968B1FBF0F000F004FB48B9102CD1
:1013A00007D200222146501E00F032F800206C6067
:1013B00070BD012070BD00002C000020380000200E
:1013C0000B4882B0016841F480410160006800F47C
:1013D000804000900648001F016841F08051016084
:1013E000006800F080500090072002B000F030B894
:1013F00044380240002809DB00F01F02012191401F
:101400004009800000F1E020C0F8001170470000A2
:10141000F0B40E4B1B680C46C3F30223C3F107055F
:10142000042D00D90425191D072901D2002300E04D
:10143000DB1E012606FA05F1491E214099409E4017
:10144000761E16403143F0BC00F078BE0CED00E093
:10145000064900F0070208684FF6FF03184040EA0B
:101460000220034A10430860704700000CED00E0C2
:101470000000FA052DE9F0470E46050065D0DFF8BB
:101480001481D8F80000F7B200F00F00B04207D284
:1014900088F80070D8F8000000F00F00B04254D176
:1014A00028683D4C810712D5400703D5206840F4D9
:1014B000E05020602878000703D5206840F46040A1
:1014C00020602068A96820F0F00008432060287898
:1014D000C0072DD0304968680839012812D0022889
:1014E00013D0032811D00968890700292DDA216853
:1014F00021F0030101432160FFF71AFF814641F209
:10150000883A0EE009688903EFE709688901ECE78A
:10151000FFF70EFFA0EB0901514502D90320BDE8FA
:10152000F0872068696800F00C00B0EB810FEFD104
:10153000D8F80010404601F00F01B14207D90770FA
:10154000006800F00F00B04201D00120E7E72878E2
:10155000400705D52068E96820F4E0500843206082
:101560002878000706D52068296920F4604040EA01
:10157000C100206000F038F82168084AC1F3031167
:10158000515CC8400649086006480068FFF7F8FE4D
:101590000020C4E7003C024008380240B02C00089C
:1015A0003800002030000020044805490068096820
:1015B000044AC1F38221515CC840704738000020C2
:1015C00008380240C02C0008044805490068096832
:1015D000044AC1F34231515CC840704738000020D2
:1015E00008380240C02C0008154810B5006810F0FB
:1015F0000C02144813D04110042A0FD0082A0ED12F
:101600000F4C241F2268236802F03F025B0207D5BB
:101610002068C0F38810A0FB010106E0084610BD59
:101620002168C1F38811A1FB00010023FEF7C8FD6A
:101630002168C1F30141491C4900B0FBF1F010BD24
:10164000083802400024F4002DE9F84F040076D059
:101650002078DFF838A3CE4DC00749D0DAF8001063
:101660005046C1F38101012908D00068C0F3810010
:1016700002280AD1281D0068400206D52868800388
:1016800036D560680028E2D032E06068B0F5803F6F
:1016900010D0B0F5A02F286810D020F4803028603A
:1016A000286820F4802028606068A0B1FFF740FE21
:1016B00006460CE0286840F48030F4E740F48020CF
:1016C0002860F7E7FFF734FE801B642873D828688A
:1016D0008003F7D50CE0FFF72BFE064605E000BFC0
:1016E000FFF726FE801B6428F0D828688003F7D413
:1016F0002078DFF8A08280074FF000093ED5DAF8A5
:101700000010504611F00C0F09D00068C0F38100A2
:1017100002280BD19D48001F0068400206D42868AB
:10172000800715D5E068012809D111E0E068B8B15B
:101730000120C8F80000FFF7FBFD064605E020E1A8
:10174000FFF7F6FD801B0228C0D828688007F7D570
:101750002868216920F0F80040EAC10028600DE007
:10176000C8F80090FFF7E4FD064604E0FFF7E0FD4F
:10177000801B02281FD828688007F7D4207800072C
:1017800022D5824E844861696C3671B101210160B5
:10179000FFF7CEFD074604E0FFF7CAFDC01B022895
:1017A00009D830688007F7D50EE0C0F80090FFF741
:1017B000BFFD074605E082E0FFF7BAFDC01B022827
:1017C0007DD830688007F7D42078400768D5DFF8E7
:1017D000BCB100270BF1380BDBF80000C0000BD4C4
:1017E000DBF8001041F08051CBF80010DBF800006E
:1017F000012700F080500090684E3068C00510D47A
:10180000306840F480703060FFF792FD009005E092
:10181000FFF78EFD0099401A022850D83068C005A5
:10182000F6D55A4EA068683601280FD005283068D2
:1018300010D020F001003060306820F004003060EB
:10184000A068B8B1FFF774FD00900FE0306840F079
:101850000100F4E740F004003060F7E7FFF768FDAF
:101860000099411A41F28830814266D83068800779
:10187000F4D50EE0FFF75CFD009007E0FFF758FDA0
:101880000099411A41F28830814256D83068800769
:10189000F4D42FB1DBF8001021F08051CBF8001008
:1018A000A069D0B3DAF800205146C2F38102022ABF
:1018B0004AD00228484607D0C8F8600000E03CE063
:1018C000FFF736FD04463BE04746C8F86000FFF7E7
:1018D0002FFD064605E000BFFFF72AFD801B02280A
:1018E0002BD828688001F7D4D4E907010843A16AFE
:1018F0002B4A490802EB0141626A41EA821108431E
:1019000094F82C1040EA01612048001F016001207A
:101910003866FFF70DFD044605E034E0FFF708FDEB
:10192000001B022809D828688001F7D52BE000BFEA
:10193000FFF7FEFC001B022802D90320BDE8F88F48
:1019400028688001F4D41EE00128F7D00868E26915
:1019500000F48001914214D1226A00F03F019142CB
:101960000FD147F6C071626A0140914209D1A26A63
:1019700000F44031914204D1E16A00F07060884285
:1019800001D00120DAE70020D8E700000838024043
:101990000038024000004742800E4742007000407D
:1019A0000000FFFF10B5401EB0F1807F01D3012081
:1019B00010BD4FF0E02460610F21601700F0BEFB06
:1019C0000020A06107202061002010BD70B590F8B4
:1019D0003C20012A32D0012480F83C40022280F8C9
:1019E0003D2003685A689D6822F070060A683243F9
:1019F0005A60134B02689A4214D0B2F1804F11D052
:101A0000104B9A420ED0104B9A420BD00F4B9A4279
:101A100008D00F4B9A4205D00E4B9A4202D00E4B83
:101A20009A4204D1496825F080031943916080F8F7
:101A30003D40002180F83C10084670BD022070BD7A
:101A4000000001400004004000080040000C00407D
:101A500000040140004001400018004010B504009F
:101A600003D094F83D0010B107E0012010BD002024
:101A700084F83C00204600F00DF8022084F83D0078
:101A8000211D206800F01AFA012084F83D00002092
:101A900010BD000008B500680649884208D1064814
:101AA000016841F010010160006800F01000009032
:101AB00008BD00000010004040380240022180F8BC
:101AC0003D1001688A6802F00702062A03D00A68FE
:101AD00042F001020A60012180F83D1000207047A9
:101AE00070B5040004D094F83900002510B106E068
:101AF000012070BD84F83850204600F023F82420DF
:101B000084F839002068C16821F40051C160204682
:101B100000F038FA2068016921F4904101612068E1
:101B2000416921F02A0141612068C16841F40051F6
:101B3000C160E563202084F8390084F83A00002071
:101B400070BD000010B586B0044614216846FEF74B
:101B50006FFB13492068884220D11248016841F484
:101B600000310160006800F4003005900D48103825
:101B7000016841F0010101600068694600F0010060
:101B800005900C200090022001900120029003207B
:101B90000390072004900448FFF7DCFA06B010BD5C
:101BA0000044004040380240000002402DE9F84364
:101BB000044690F839001F4616460D46202850D19D
:101BC000B5B1AEB194F8380001284AD0012084F8AC
:101BD00038004FF00008C4F83C80212084F8390018
:101BE000FFF7A6FBA6848146E68484F8388026E0C9
:101BF0000120BDE8F883E08C401EE084A0684B46DD
:101C0000B0F5805F4FF000024FF080012046009752
:101C100003D000F04BFAE8B90DE000F047FAC8B97C
:101C200028882168C0F308004860206908B16D1C4D
:101C300005E0AD1C03E0216815F8010B4860E08C5D
:101C40000028D8D14B46002240212046009700F0C2
:101C50002DFA08B10320CCE7202084F839000020B9
:101C6000C7E70220C5E7FEE77FB5002412480094CD
:101C7000019402940F490394016001254FF440310F
:101C80000561C0E90114057680F820400B49C0E9E0
:101C90000A14C561C46080F830504561FEF7B3FF97
:101CA00007200094CDE9015069460348FEF702FF82
:101CB0007FBD0000002001403C0000200100000F1B
:101CC0002DE9F04186B014216846FEF7B1FA1B48B1
:101CD0000024016841F001010160016801F0010187
:101CE0000591016841F0080101600068144F00F09F
:101CF00008000590224602213846FFF713FBDFF863
:101D000044804FF47046002231464046FFF70AFBFC
:101D1000022000900125CDE901546946384603941C
:101D2000FFF718FA0096CDE901546946404603943E
:101D3000FFF710FA06B0BDE8F0810000303802402D
:101D400000000240000C0240FEE7000010B5052133
:101D50001A48FEF7CDFF1A4C28B14FF0FF30BFEE06
:101D6000000A606209E01548FEF74AFF40F6B241FA
:101D70006062884204D99FED130A84ED0A0A10BDFF
:101D800040F27671884202D29FED0F0AF5E700EE2D
:101D9000100ADFED0E0AB8EE400A30EE600A10EECF
:101DA000100AFEF749FB9FED0A1B53EC112BFEF7BF
:101DB00051FAFEF754FBA06210BD00003C00002069
:101DC00000000020000000000000C84200204B4539
:101DD000A072760BBF1AB3BF70477047704730B51B
:101DE00085B00C46054614216846FEF721FA00200E
:101DF000CDE900400120029069462846FFF7AAF984
:101E000005B030BD30B585B00C4605461421684696
:101E1000FEF70EFA0120CDE900400020039069464C
:101E20002846FFF797F905B030BDFFF787BA0000E5
:101E300010B592B030216846FEF7FAF914210CA8CB
:101E4000FEF7F6F914480024016841F08051016062
:101E5000006800F0805011901048016841F4804102
:101E600001600068069400F4804011900220009008
:101E700001200390102004906846FFF7E5FB0F2037
:101E8000CDE90C040E940F9400210CA81094FFF7D8
:101E9000F1FA12B010BD000040380240007000405E
:101EA0000548016841F47001016003494FF000608A
:101EB000803908607047000088ED00E0F0B50268E6
:101EC000254C264D264E274F274B4FF0804CA042E5
:101ED00009D0604507D0A84205D0B04203D0B8422F
:101EE00001D0984204D122F0700E4A6842EA0E02F4
:101EF000A0421BD0604519D0A84217D0B04215D0DF
:101F0000B84213D0984211D0184DA8420ED0184DA7
:101F1000A8420BD0174DA84208D0174DA84205D0B3
:101F2000164DA84202D0164DA84203D122F44075A6
:101F3000CA682A434D6922F080022A4302608A68F7
:101F4000C2620A688262A04201D0984201D1096946
:101F5000016301214161F0BD000001400004004027
:101F600000080040000C0040000401400040014017
:101F7000004401400048014000180040001C00409F
:101F8000002000402DE9F041044600680169E26844
:101F900021F44051114301612169A068E2690843BD
:101FA0006169114308432168CA6849F20C639A4386
:101FB0000243CA6020684169A26921F4407111435B
:101FC0004161E069192764253226B0F5004F354A92
:101FD000354920684FF0000806D0884201D0904271
:101FE00036D1FFF7F1FA35E0884201D0904202D1B4
:101FF000FFF7EAFA01E0FFF7D7FA61684A18A0FB99
:10200000070148EB0803FEF7DBF80146B0FBF5F0EB
:102010000201B1FBF5F06FF01803584301EB8000AB
:1020200006EBC000B0FBF5F000F0F80002EB400258
:10203000B1FBF5F0584301EB800006EBC000B0FBAC
:10204000F5F000F00700216810448860BDE8F081D9
:10205000FFF7AAFA61688B0F8A00A0FB0701FEF761
:10206000AFF80146B0FBF5F06FF01802504301EBFA
:10207000800006EB0010B0FBF5F000F0F002B1FBC1
:10208000F5F002EB0012B1FBF5F06FF018035843C6
:1020900001EB800006EB0010B0FBF5F000F00F0044
:1020A000D1E7000000140140001001402DE9F0418B
:1020B000984617460E460446069D1DE0681C1BD038
:1020C0002DB1FFF735F9A0EB0800A84214D920681C
:1020D000C16821F4D071C1602068416921F001011B
:1020E0004161202084F8390084F83A00002084F807
:1020F00038000320BDE8F0812068006836EA00005F
:1021000004D00020B842D9D00020F3E70120F9E73D
:10211000FEE700000FB4084B10B504A902AA03980B
:1021200000F0EEF8044602A9002000F080FC2046F2
:1021300010BC5DF814FB00002F2A00080907090EE7
:10214000002804DB00F1E02080F80014704700F064
:102150000F0000F1E02080F8141D704702E008C86D
:10216000121F08C1002AFAD170477047002001E011
:1021700001C1121F002AFBD1704700002DE9FF5F4B
:1021800082B00021DDE90430020DDDF840B00343E8
:1021900018D044F61050A2F2FF32424315141198A1
:1021A00001281FD0A5EB0B00401C5FEA000A4FF08E
:1021B00000064E4FDFF83891B046504615D5CAF1AB
:1021C000000413E0119801244AA3012801D16FEA09
:1021D0000B010298119AC0E90031C0E9024206B031
:1021E000BDE8F09FCBF10000DFE704460021404A44
:1021F000491842EB0450CDE9001012E0E00707D087
:1022000032463B4640464946FEF724F8804689461A
:1022100032463B4610461946FEF71CF806460F4666
:102220006410002CEAD1DDE90401DDE90023BAF1F4
:10223000000F06DAFEF70EF842464B46FEF70AF8A4
:1022400005E0FEF779F842464B46FEF775F804467E
:102250000E460022284BFEF7A7FA03D84FF0FF30B6
:10226000014607E00022254B20463146FEF7DCF907
:10227000FEF781FA102409E0002C0ADB0A22002371
:10228000FDF79EFF039B30321A55641E50EA01028F
:10229000F2D1641C039AC4F111031444119A012A67
:1022A00003D0012208430DD10AE0084304D00020E6
:1022B0004FF0110B119072E7A3EB0B056D1E0DE0B3
:1022C0005B4504DD4FF0000205F1010504E003DA8F
:1022D0004FF00002A5F10105002AECD002981199F7
:1022E000C0E90231C0E9004579E700000000144070
:1022F0000000F03F300000000000F0430000E03F2D
:102300002DE9FF4F95B09B468946064600250FE212
:10231000252877D100242746F84A0121059400E0BA
:10232000044316F8013F203B01FA03F01042F7D1B5
:1023300030782A2811D06FF02F033078A0F13002C6
:10234000092A16D8059A44F0020402EB820203EB34
:1023500042021044761C0590EFE759F8042B0592D1
:10236000002A03DA504244F40054059044F0020479
:10237000761C30782E2816D116F8010F44F004048C
:102380002A280DD06FF02F023078A0F13003092BEE
:1023900009D807EB870302EB4303C718761CF3E762
:1023A00059F8047B761C30786C280FD006DC4C285A
:1023B00017D068280DD06A2814D104E0742810D0F2
:1023C0007A280FD10DE044F400140AE044F480149C
:1023D00001E044F440147278824202D104F5801482
:1023E000761C761C307866280BD013DC582877D002
:1023F00009DC002875D04528F6D04628F4D04728B7
:102400001AD19DE118E0632835D0642879D0652879
:1024100012D195E1702873D008DC6728F1D06928C3
:102420006FD06E280DD06F2806D1B5E073282CD060
:10243000752875D0782874D05A46179990476D1C26
:1024400075E1C4F30250022809D003280DD0D9F851
:10245000001004280DD00D6009F1040967E1D9F8D6
:102460000010EA17C1E90052F6E7D9F800100D8014
:10247000F2E70D70F0E719F8041B8DF8001000204A
:102480008DF80100EA46012003E059F804AB4FF053
:10249000FF3061074FF0000102D40DE008F10101A7
:1024A0008846B9420FDA8045F8DB1AF8081000298F
:1024B000F4D108E008F1010188468142FADB1AF8FC
:1024C00008100029F6D105985B46A0EB08072146C5
:1024D0003846179A00F094FA284400EB080507E004
:1024E0004DE029E10DE01AF8010B5A461799904783
:1024F000B8F10108F7D25B4621463846179A13E136
:1025000042E00A220092C4F302524FF0000A022A6B
:1025100008D059F804CB032A4FEAEC710AD00DE039
:1025200029E02AE009F1070121F00702F2E802C1DF
:10253000914609E00FFA8CFC4FEAEC71042A03D1B2
:102540004FFA8CFC4FEAEC71002907DA0A460021A9
:10255000DCF1000C61EB02012D2202E0220504D522
:102560002B228DF80420012203E0E20701D0202273
:10257000F7E7904659E00A2102E010220DE0102111
:102580004FF0000A00910BE010224FF0000A44F0D7
:1025900004040827009203E008224FF0000A00928A
:1025A000C4F30252022A05D059F804CB0021032AB1
:1025B00008D009E009F1070121F00702F2E802C1A1
:1025C000914605E01FFA8CFC042A01D10CF0FF0CA7
:1025D0004FF00008220728D5702806D0009B83F012
:1025E000100353EA0A0305D00EE040228DF80420C0
:1025F000012208E05CEA010206D030228DF80420B6
:102600008DF8050002229046009B83F0080353EAF0
:102610000A030AD15CEA010201D1620705D5302222
:102620008DF804204FF001087F1E582804D034A0F4
:1026300003900EA802900DE036A0F9E753466046DD
:10264000009AFDF7BDFD84460398825C0298401E07
:10265000029002705CEA0100F0D1029806A9081A03
:1026600000F1200A600702D524F4803400E001273D
:10267000574502DDA7EB0A0000E0002000EB0A014D
:10268000009005984144401A0590E00306D45B464B
:102690002146179A059800F0B3F90544002706E093
:1026A00001A85A46C05D179990476D1C7F1C47458D
:1026B000F6DBE0030CD55B462146179A059800F03F
:1026C0009FF9054404E030205A46179990476D1C45
:1026D0000099481E00900029F5DC08E00298029954
:1026E0005A460078491C0291179990476D1CBAF11F
:1026F0000001AAF1010AF1DC65E1000009280100EE
:102700003031323334353637383961626364656667
:102710000000000030313233343536373839414229
:10272000434445460000000000F058F90544761C7B
:10273000307800287FF4ECAD19B02846BDE8F08F62
:10274000620700D4062709F1070222F0070CFCE813
:102750000223E14603F000485FEA080C02D00FF2C2
:10276000702C0DE05FEA045C02D50FF2682C07E0E4
:102770005FEAC47C02D00FF2602C01E0AFF2700C73
:102780004FF0FF3823F00043CDF850C065280CD03F
:1027900006DC452809D046281DD047283DD13DE01C
:1027A000662818D067287ED138E00021112F01DB80
:1027B000112000E0781CCDE9000106A90EA8FFF762
:1027C000DDFCDDE90F010E9A03910021009207F173
:1027D000010A04914DE04FF000400097CDE901104F
:1027E00006A90EA8FFF7CAFCDDE90F0203920E9BB3
:1027F00011990022DDF80CA00093049211B9791C04
:1028000000EB010AB7EB0A0004D4C0F1FF3007F176
:10281000010A0490AAEB0700019044E0012F00DABE
:1028200001270021112F01DD112000E03846CDE9FC
:10283000000106A90EA8FFF7A1FCDDE90F010E9A21
:102840000391002104910092BA4621070CD4039908
:10285000514500DA8A46BAF1010F05DD009AAAF166
:102860000101515C302908D0B84202DA10F1040F9E
:1028700006DA0121CDE9011015E0AAF10101E9E72D
:10288000002805DC049901440491AAEB000102E050
:10289000411C514500DD8A460499401A401C0190B4
:1028A0004FF000400290200704D40198504501DB0E
:1028B000CDF8048000208DF84F0002980DF14F07ED
:1028C000B0F1004F25D02B200E9002984FF0020857
:1028D00000280CDA404202902D200E9007E00A21D9
:1028E0000298FDF7D8FD3031029007F8011DB8F1CC
:1028F0000001A8F10108F2DC02980028EFD1791E4E
:102900000E980870307800F0200040F0450007F87D
:10291000020D12A8C01B00F107081498007800B13E
:10292000012000EB0A01019801EBE0710598414498
:10293000401A401E0590E00306D45B462146179AD4
:10294000059800F05DF805441498007818B15A46CF
:10295000179990476D1CE00324D55B462146179AD2
:10296000059800F04DF805441CE00498002807DBAA
:10297000DDE90301884203DD0098405C179901E01E
:10298000179930205A469047049805F10105401CDC
:1029900004900198401E019004D12E205A461799A8
:1029A00090476D1CBAF10001AAF1010ADDDC05E0D7
:1029B00017F8010B5A46179990476D1CB8F10001A2
:1029C000A8F10108F4DC5B462146179A0598ABE6AE
:1029D0002D0000002B000000200000002DE9F04138
:1029E000044600251E461746880404D405E03946EF
:1029F0002020B0476D1C641EF9D52846BDE8F08143
:102A00002DE9F041044600251E469046C80301D535
:102A1000302700E02027880404D505E041463846E9
:102A2000B0476D1C641EF9D52846BDE8F0810A68E0
:102A3000531C0B601070704730B50022DFED170A91
:102A400090ED001A13464D1E09E000BF00EB830411
:102A50005B1CD4ED011A84ED011AB0EE611AAB4291
:102A6000F4DB80ED000A00230DE000BF00EB8304DF
:102A700094ED000AB5EEC00AF1EE10FA02D070EE45
:102A8000200A521C5B1C8B42F0DB02B9012200EED3
:102A9000102AB8EEC01A80EE810A30BD0000000096
:102AA000044900220B685A6209684A6A8242FCD3D0
:102AB00070470000840000202DED028B8CB0FEF7E3
:102AC00045FCFFF7B5F9FFF7FBF86E4800240168F5
:102AD00041F4800101600068224600F4800000900B
:102AE00021463820FEF794FC3820FEF783FCFFF7E0
:102AF000BBF86648644901604FF4E131C0E9011454
:102B00000C21C460C0E904418461C461FEF7E8FFA0
:102B10005E48009440385E49019401600F21C0E98D
:102B200001144FF6FE718461C160FEF797FF5748AC
:102B30000094694640380194FEF748FF53484038F6
:102B4000FEF7BCFFDFF84C91534C4FF4805A4FF422
:102B5000004B9FED528B51464846FEF7DCFBFDF7DC
:102B600043FFFDF7F3FE2070FDF710FF6070FDF7E7
:102B70000DFFA070FDF70AFFE070FDF707FF207161
:102B8000FDF704FFE08059464846FEF7C4FB207974
:102B9000E17840EA01206081A1786278401F41EA33
:102BA00002252581FDF737FC53EC182BFDF7C4FBFC
:102BB000FDF755FCE060A5F12300FDF72CFC53EC7C
:102BC000182BFDF7B9FBFDF74AFC00EE100A2F4861
:102BD00084ED040A05214030FFF72EFF2B4884EDD9
:102BE000050A05215430FFF727FF284884ED060A1F
:102BF0008838FEF7CFF8FFF7A9F824488838FEF7A1
:102C00003FF94FF400514846FEF785FB1F480A2163
:102C1000683094ED0A0AFFF70FFF1C4884ED070A9D
:102C20000A219030FFF708FF84ED080A10EE100A21
:102C3000FDF702FC07468846A069FDF7FDFB054647
:102C40000E46E068FDF7F8FB41EC100B8DE8E00163
:102C500053EC102B134904A8FFF75CFA04A8FDF706
:102C6000F2FA82B20A2304A90848FEF79FFF4FF444
:102C700080414846FEF74FFB4FF47A70FEF758FA52
:102C800069E700003038024000440040C4000020E2
:102C900000100040000C0240000000200000000076
:102CA00000002440C82C000800061016000610166C
:102CB00000000000000000000102030406070809EC
:102CC000000000000102030454656D7065726174B8
:102CD0007572653A20202025352E3166430D0A484D
:102CE000756D69646974793A20202020202025358B
:102CF0002E316625250D0A536F696C204D6F73695F
:102D0000747572653A2025352E316625250D0A0A1F
:102D100000000000342D0008000000203C000000EE
:102D20005C210008702D00083C000020A405000074
:102D30006C210008000000000000000000000000FE
:102D40000000000000000000000000000000000083
:102D50000000000000000000000000000000000073
:102D60000100000010000000000000000024F4003A
:040000050800018965
:00000001FF
